:100000000211A3D200E490017DF02202110DAD0790
:10001000AC0675C5038CC38DC475C65A75C6A500DC
:020020000022BC
:10002300020D6F2001030207FE900037E0F4600326
:100033000207F290003AE0241860030207F29000EE
:100043003CE024EE700302029624FE70030203CA0E
:1000530014700302052424D5700302069024F07063
:10006300030206FD24F0700302076E246F7003027F
:1000730007B124E160030207F212136A8F18E5182F
:10008300C39404400302028CEF75F034A4246CF58E
:1000930082E43400F5837416F0900038E0FFE5182D
:1000A30075F034A4246DF582E43400F583EFF07821
:1000B30038E6FFE51875F034A4246EF582E43400C5
:1000C300F583EFF0E51875F034A4246FF582E4347A
:1000D30000F583741EF0E51875F034A42470F582DE
:1000E300E43400F58374E8F0E51875F034A4247162
:1000F300F582E43400F583741CF0E51875F034A43C
:100103002472F582E43400F5837408F0E51875F081
:1001130034A42473F582E43400F583E4F0E5187520
:10012300F034A42474F582E43400F583E4F0900001
:1001330032E0FCA3E0FDECFFE51875F034A4247570
:10014300F582E43400F583EFF0E51875F034A42468
:1001530076F582E43400F583EDF0900035E0FCA3FE
:10016300E0FDECFFE51875F034A42477F582E43460
:1001730000F583EFF0E51875F034A42478F582E4F4
:100183003400F583EDF0E51875F034A42479F58295
:10019300E43400F5837442F0E4F51990013FE0FF85
:1001A300E51875F034A4247AF582E43400F583E588
:1001B300822519F582E43583F583EFF00519E519F6
:1001C300B407D8E51875F034A42481F582E434002B
:1001D300F583E4F0F51990013FE0FFE51875F0347D
:1001E300A42482F582E43400F583E5822519F5829F
:1001F300E43583F583EFF00519E519B407D8E5185D
:1002030075F034A42489F582E43400F583E4F0A284
:100213000433FFE51875F034A4248AF582E434002E
:10022300F583EFF07838E6FFE51875F034A4248BF6
:10023300F582E43400F583EFF0900069E0FEA3E07B
:10024300FF7C007D05120D42E47BE87A03F9F81286
:100253000C9FE51875F034A4248CF582E43400F582
:1002630083EFF0E51875F034A4248DF582E43400AF
:10027300F583E4F0E51875F034A4249EF582E434A4
:1002830000F5837423F00207F2E526F470030207F6
:10029300F280F612136A8F18E518C3940440030220
:1002A30003C0EF75F034A4246CF582E43400F583C5
:1002B3007416F0900038E0FFE51875F034A4246D4F
:1002C300F582E43400F583EFF07838E6FFE518753E
:1002D300F034A4246EF582E43400F583EFF0E518DE
:1002E30075F034A4246FF582E43400F583740AF0C6
:1002F300E51875F034A42470F582E43400F58374B2
:10030300E8F0E51875F034A42471F582E43400F5BF
:10031300837408F0E51875F034A42472F582E4348C
:1003230000F583741AF0E51875F034A42473F5828C
:10033300E43400F583E4F0E51875F034A42474F58F
:1003430082E43400F583E4F0A20233FFE51875F08C
:1003530034A42475F582E43400F583EFF0E51875D1
:10036300F034A42476F582E43400F583E4F0E51850
:1003730075F034A42477F582E43400F583E4F0E5E2
:100383001875F034A42478F582E43400F583E4F09E
:100393007F002000027F01E51875F034A42479F56D
:1003A30082E43400F583EFF0E51875F034A4249E5D
:1003B300F582E43400F583740FF00207F2E526F4C6
:1003C30070030207F280F612136A8F18E518C394BC
:1003D30004400302051AEF75F034A4246CF582E49B
:1003E3003400F5837416F0900038E0FFE51875F0DB
:1003F30034A4246DF582E43400F583EFF07838E615
:10040300FFE51875F034A4246EF582E43400F58317
:10041300EFF0E51875F034A4246FF582E43400F5A9
:10042300837423F0E51875F034A42470F582E43462
:1004330000F58374E8F0E51875F034A42471F582AF
:10044300E43400F5837421F0E51875F034A42472C4
:10045300F582E43400F583741CF090013BE0F51A57
:10046300A3E0F51BE51AFFE51875F034A42473F532
:1004730082E43400F583EFF0E51875F034A42474B6
:10048300F582E43400F583E51BF0751901E51925C0
:10049300E0FFE51875F034A42473F582E43400F525
:1004A30083E5822FF582E43583F583E4F0E518755F
:1004B300F034A42474F582E43400F583E5822FF547
:1004C30082E43583F583E4F00519E519B408BEE445
:1004D300F519E51925E0FFE51875F034A42483F533
:1004E30082E43400F583E5822FF582E43583F583D6
:1004F300E4F0E51875F034A42484F582E43400F5BF
:1005030083E5822FF582E43583F583E4F00519E56D
:1005130019B408BE020671E526F470030207F280DF
:10052300F612136A8F18E518C39404400302068673
:10053300EF75F034A4246CF582E43400F58374166B
:10054300F0900038E0FFE51875F034A4246DF582CF
:10055300E43400F583EFF07838E6FFE51875F034FE
:10056300A4246EF582E43400F583EFF0E51875F00A
:1005730034A4246FF582E43400F5837423F0E51882
:1005830075F034A42470F582E43400F58374E8F044
:10059300E51875F034A42471F582E43400F583740E
:1005A30021F0E51875F034A42472F582E43400F5E3
:1005B30083741DF0900140E0F51AA3E0F51BE51AE2
:1005C300FFE51875F034A42473F582E43400F58351
:1005D300EFF0E51875F034A42474F582E43400F5E3
:1005E30083E51BF0751901E51925E0FFE51875F0A2
:1005F30034A42473F582E43400F583E5822FF58275
:10060300E43583F583E4F0E51875F034A42474F538
:1006130082E43400F583E5822FF582E43583F583A4
:10062300E4F00519E519B408BEE4F519E51925E068
:10063300FFE51875F034A42483F582E43400F583D0
:10064300E5822FF582E43583F583E4F0E51875F050
:1006530034A42484F582E43400F583E5822FF58203
:10066300E43583F583E4F00519E519B408BEE5180C
:1006730075F034A4249EF582E43400F5837428F0E5
:100683000207F2E526F470030207F280F6121468FB
:100693007F007E0412000E90003DE0FF7D017C048C
:1006A30012143690003EE0FF7D027C041214369053
:1006B300003FE0FF7D037C04121436900040E0FF0E
:1006C3007404FDFC1214367D007C047F5A12143628
:1006D30012145690003DE0FEA3E07C002400FFECE2
:1006E3003E900032F0A3EFF090003FE0FEA3E02441
:1006F30000FFEC3E9000350207AB1214687F007ECA
:100703000612000E90003EE0FF90013FF07D017C59
:10071300061214367D007C067F5A121436121456C4
:100723007833E6640360030207F2900140E0FEA31E
:10073300E0FFC374FF9FFF74039EFE90013FE0FD43
:100743007C00D3EF9DEE9C4015900141E02DFE907F
:100753000140E03C900144F0A3CEF00207F2900187
:10076300447403F0A374FFF00207F21214687F00CD
:100773007E0812000E90003DE0FF7D017C081214FC
:10078300367D007C087F5A12143612145690003DB1
:10079300E0FF7E007C037DE8120D42E47B05FAF95D
:1007A300F8120C9F900069EEF0A3EFF08041121451
:1007B300687F007E0A12000E90003DE0FDFEA3E07C
:1007C3007A002400FFEA3E900146F0A3EFF0AF0564
:1007D3007D017C0A12143690003EE0FF7D027C0A04
:1007E3001214367D007C0A7F5A121436121456C234
:1007F300AF9001487402F0D2AFC201E526F4600362
:10080300020897783AE66003020897900148E0608F
:1008130003020897F518E51875F034A4246BF582E4
:10082300E43400F583E064017061E51875F034A4E5
:10083300246BF582E43400F5837402F0851826E511
:100843001875F034A4249EF582E43400F583E02483
:10085300FFF582E434FFF583E51875F034A4246CC6
:10086300F9740035F0FA7B0178497C017D01AE8390
:10087300AF82120C3DE51875F034A4249EF582E492
:100883003400F583E0783BF60214090518E518C334
:100893009404408222E5257003020B6CAB23AA2249
:1008A300782CEB26F618EA36F6782D06E664046013
:1008B30003020B6C782BE6FE08E67802CEC313CE58
:1008C30013D8F9F5198E18E4782BF608F608F69084
:1008D300013BE518F0A3E519F07833E624FD700336
:1008E300020980046003020B697831E51926F618C2
:1008F300E51836F6783D06E618700106783DE6649D
:100903002018466003020B697830E6FE08E6780596
:10091300CEC313CE13D8F9FF900140EEF0A3EFF04E
:10092300AA06FB90013FE0F9FD7C00C3EB9DFEEAC4
:100933009C900142F0A3CEF0900140E0FEA3E0FFC3
:10094300C374FF9FFF74039EFED3EF9DEE9C401480
:10095300E9FFE02FFE900140E03400900144F0A352
:10096300CEF0800A9001447403F0A374FFF0E4789E
:1009730030F608F608F678337603020B69E521258D
:10098300E0F521D3900143E09519900142E09518D9
:100993004003020AB4C3900145E09519900144E075
:1009A30095185003020AB47831E51926F618E518AC
:1009B30036F6783206E664026003020AB77830E658
:1009C300C313FA08E613FB2401FFE43AFE90014047
:1009D300E0FCA3E0FDD39FEC9E4062781C06E69406
:1009E300065003020AAAD3ED9400EC9400500302CC
:1009F3000AA6E024FFF0900140E034FFF0E0FAA300
:100A0300E0FB90013FE0FFC3EB9FFFEA9400FED3BE
:100A1300EF9400EE94004008900142EEF0A3EFF053
:100A2300D3900145E09400900144E094004074A306
:100A3300E024FFF0900144E034FFF0806690014031
:100A4300E0FEA3E0FF2401FDE43EFCD3EB9DEA9C22
:100A53004055781C06E69406404DEF94FFEE940350
:100A63005041E004F07006900140E004F090014032
:100A7300E0FAA3E0FB90013FE0FFC3EB9FFEEA94A3
:100A830000900142F0A3CEF0C3900145E094FF90A3
:100A93000144E09403500CA3E004F0700690014479
:100AA300E004F0E4781CF6E47830F608F608F68003
:100AB30003432101E521540F640F70697837E6443D
:100AC30001F6E4F527F528900140E518F0A3E519B0
:100AD300F0AA18FB90013FE0FD7C00C3EB9DFEEA0A
:100AE3009C900142F0A3CEF0900140E0FEA3E0FF12
:100AF300C374FF9FFB74039EFAD3EB9DEA9C400EE5
:100B0300EF2DFFEC3E900144F0A3EFF0800A90013B
:100B1300447403F0A374FFF0E47830F608F608F6A3
:100B2300781CF68017E521540F7011D3E5289458EB
:100B3300E527940240067837E654FEF67E007837C0
:100B4300E65401FFFD7C0090017BE07003A3E06DA0
:100B5300600A90017BECF0A3EDF0B2B3EF4E7004AA
:100B6300C2028002D202E4F52522E709F608DFFA81
:100B73008046E709F208DFFA803E88828C83E70922
:100B8300F0A3DFFA8032E309F608DFFA8078E3099D
:100B9300F208DFFA807088828C83E309F0A3DFFA1E
:100BA300806489828A83E0A3F608DFFA8058898209
:100BB3008A83E0A3F208DFFA804C80D280FA80C6F1
:100BC30080D4806980F28033801080A680EA809A86
:100BD30080A880DA80E280CA803389828A83ECFA33
:100BE300E493A3C8C582C8CCC583CCF0A3C8C5828F
:100BF300C8CCC583CCDFE9DEE7800D89828A83E434
:100C030093A3F608DFF9ECFAA9F0EDFB2289828AB7
:100C130083ECFAE0A3C8C582C8CCC583CCF0A3C8D3
:100C2300C582C8CCC583CCDFEADEE880DB89828A53
:100C330083E493A3F208DFF980CC88F0EF60010E20
:100C43004E60C388F0ED2402B4040050B9F582EB82
:100C53002402B4040050AF2323458223900BBD73B9
:100C630075F008758200EF2FFFEE33FECD33CDCC48
:100C730033CCC58233C5829BED9AEC99E5829840CB
:100C83000CF582EE9BFEED9AFDEC99FC0FD5F0D6A8
:100C9300E4CEFBE4CDFAE4CCF9A88222B800C1B9D2
:100CA3000059BA002DEC8BF084CFCECDFCE5F0CB10
:100CB300F97818EF2FFFEE33FEED33FDEC33FCEB49
:100CC30033FB10D703994004EB99FB0FD8E5E4F904
:100CD300FA227818EF2FFFEE33FEED33FDEC33FCF1
:100CE300C933C910D7059BE99A4007EC9BFCE99AE5
:100CF300F90FD8E0E4C9FAE4CCFB2275F010EF2F2A
:100D0300FFEE33FEED33FDCC33CCC833C810D70729
:100D13009BEC9AE899400AED9BFDEC9AFCE899F864
:100D23000FD5F0DAE4CDFBE4CCFAE4C8F922EB9F6B
:100D3300F5F0EA9E42F0E99D42F0E89C45F022EC92
:100D43008EF0A4CCC5F0CCCDF8EFA4CEC5F02DFD2C
:100D5300E43CFCE8A42EC8C5F03DFDE43CFCEFA454
:100D6300FFE5F028FEE43DFDE43CFC22C0E0C0F0DA
:100D7300C083C082C0D075D0101099028055782EE0
:100D830006783BE6FF782EE6FEC39F5027EF14B5A7
:100D930016077834E6F599803874492EF582E434E1
:100DA30001F583E0FFF599EED3940040247834EF06
:100DB30026F6801DE526C394045011E52675F0340C
:100DC300A4246BF582E43400F583E4F07526FFC2B6
:100DD30006C299109803020ED8AF99783AE61460C8
:100DE3003214604D146068147003020E7A14700399
:100DF300020EAE24056003020ED2EF6416600302F6
:100E03000ED6782FF67835F678397604783A760167
:100E1300020ED6782FE6062400F582E43400F5832B
:100E2300EFF0783526F678397604783A7602020EB2
:100E3300D6782FE6062400F582E43400F583EFF03C
:100E4300783526F678397604783A7603020ED6EFAB
:100E5300D39400407AEF942F5075782FE606240040
:100E6300F582E43400F583EFF0783526F6783976A9
:100E730004783A7604805C782FE6FE2400F582E459
:100E83003400F583EFF0783526F6900002E0240273
:100E9300FDE433FCEEB5150AE4B51406783A76059D
:100EA3008003782F067839760480287835E6B517DD
:100EB3001E20011B900002E02403FFE433FE783779
:100EC3007C007D017B017A007900120C3DD2017810
:100ED3003A7600C298D0D0D082D083D0F0D0E0321E
:100EE3001214687F007E041214208F18E518645AC8
:100EF30070757F017E041214208F18EF900032F07A
:100F0300A3E4F07F027E041214208F18900033E0D4
:100F13002FF0900032E03400F07F037E041214209F
:100F23008F18EF900035F0A3E4F07404FFFE121461
:100F3300208F18900036E02FF0900035E03400F059
:100F4300900032E0FEA3E0FFC3EE9400401990004E
:100F530035E0FCA3E0FDD394E7EC94035009C3EF21
:100F63009DEE9C40138000E4900032F0A3F09000CB
:100F7300357403F0A374E7F07F007E061214208F0C
:100F830018E518B45A197F017E0612142090013F08
:100F9300EFF0C394054008E0D394FF40088000902D
:100FA300013F7432F07F007E081214208F18E51879
:100FB300B45A257F017E081214208F187E007C030B
:100FC3007DE8120D42E47B05FAF9F8120C9F9000BC
:100FD30069EEF0A3EFF08007E4900069F0A3F07FDF
:100FE300007E0A1214208F18E518645A70297F01B5
:100FF3007E0A1214208F18EF900146F0A3E4F07FCD
:10100300027E0A1214208F18900147E02FF09001FE
:1010130046E03400F08007E4900146F0A3F00214A8
:1010230056759101E4F59275B102F5B2D2057FFFD1
:10103300DFFEA2B1B3300501B34017E51B2401F570
:101043001BE4351AF51AE43519F519E43518F518C2
:10105300800EE4F51BF51AF519F518A2B1B3920544
:10106300E47F08FEFDFCAB1BAA1AA919A818C3123A
:101073000D3140BAB205E4F5B175B21ED2B2D2B3A6
:10108300D2B475B340F5B475BB70C2B2C2B378388D
:101093007637D204751BF0751A49751902F518E4F1
:1010A300FFFEFDFCAB1BAA1AA919A818D3120D3118
:1010B300401AE51B24FFF51BE51A34FFF51AE51961
:1010C30034FFF519E51834FFF51880D3D2B2D2B343
:1010D300751BF0751A49751902751800E4FFFEFDBA
:1010E300FCAB1BAA1AA919A818D3120D31401AE593
:1010F3001B24FFF51BE51A34FFF51AE51934FFF538
:1011030019E51834FFF51880D322C0E0C083C082EC
:10111300C0D075D008758A00758CDCD28C53BCEFB7
:10112300E525702AAFBDF5228F23E523AE22780291
:10113300C333CE33CED8F9F5238E22E5BE5403252F
:1011430023F523E43522F52275250143BC089000DD
:1011530034E004F090013EE004F0700690013DE0BD
:1011630004F0900148E0D394004003E014F0052814
:10117300E52870020527300308052AE52A700205D1
:1011830029783AE660117839E6D39400400116785D
:1011930039E67003783AF6D0D0D082D083D0E032EB
:1011A300787FE4F6D8FD75813D0211EA0213D5E498
:1011B30093A3F8E493A34003F68001F208DFF480DD
:1011C30029E493A3F85407240CC8C333C4540F442D
:1011D30020C8834004F456800146F6DFE4800B0107
:1011E3000204081020408090145EE47E019360BCEA
:1011F300A3FF543F30E509541FFEE493A360010E9F
:10120300CF54C025E060A840B8E493A3FAE493A3C5
:10121300F8E493A3C8C582C8CAC583CAF0A3C8C5E6
:1012230082C8CAC583CADFE9DEE780BE90017DE0DC
:1012330014601114602B240270507833E6D39402A7
:101243004048803C900034E0D394C8403DE4F03003
:10125300000520C635800330C63090017D7402F04E
:1012630022900034E0D39414402030000920C606B5
:10127300C200C2B2800A20000730C604D200D2B234
:10128300E4900034F090017D04F022E4F525783CED
:10129300F608F6782BF608F608F67830F608F6081E
:1012A300F690013BF0A3F0900140F0A3F0A3F0A36C
:1012B300F0A3F0A3F0F521781CF6F527F52878368E
:1012C300F608F690017BF0A3F0C20202144A300044
:1012D300033002193005167833E6B40310C2AFE4C5
:1012E300F529F52AD2AF200304C2B4D20330031385
:1012F300C2AFD2AFD3E52A9458E52994024004C281
:1013030003D2B422C201E4783AF67839F6782FF69C
:101313007835F6783BF6782EF6C206FFEF75F03493
:10132300A4246BF582E43400F583E4F00FBF04ECEE
:101333007526FF0213B77833E6146013047027C2CF
:10134300AFE490013DF0A3F0D2AF7833760122C22F
:10135300AF90013DE0FEA3E0D2AFD394E8EE940357
:1013630040047833760222E4FFC2AFEF75F034A471
:10137300246BF582E43400F583E0D2AF7013EF758C
:10138300F034A4246BF582E43400F5837401F08017
:10139300040FBF04D422538E7F5389F0438901E4A1
:1013A300F58A758CDCC28DD2A943B702C2B9D28C3F
:1013B30043BC082275985053873F538EFB759CFAA4
:1013C300438E01438E10D2ACD2BC53B7EF00000062
:1013D30000221213F1D2AF75C136121339120898D5
:1013E30012002612122F1212D175C13680EC121080
:1013F30024120EE312146312128E12130712000347
:1014030012146C021399D206E47834F6782EF6E6B9
:101413002449F582E43401F583E0F59922AD07AC64
:101423000675C5018CC38DC475C65A75C6A5000063
:10143300AFC222AB0775C5028CC38DC48BC275C600
:101443005A75C6A5000022439D0175BC80C2AD53E9
:10145300A2FB22E4F5C5F5C7F5C622410148000009
:0C146300E47833F62275C78022C2032211
:00000001FF
