:100000000211D4D200E490017DF022021078AD07F5
:10001000AC0675C5038CC38DC475C65A75C6A500DC
:020020000022BC
:10002300020DC32001030207FE900037E0F46003D2
:100033000207F290003AE0241860030207F29000EE
:100043003CE024EE700302029624FE70030203CA0E
:1000530014700302052424D5700302069024F07063
:10006300030206FD24F0700302076E246F7003027F
:1000730007B124E160030207F21213988F18E51801
:10008300C39404400302028CEF75F034A4246CF58E
:1000930082E43400F5837416F0900038E0FFE5182D
:1000A30075F034A4246DF582E43400F583EFF07821
:1000B30039E6FFE51875F034A4246EF582E43400C4
:1000C300F583EFF0E51875F034A4246FF582E4347A
:1000D30000F583741EF0E51875F034A42470F582DE
:1000E300E43400F58374E8F0E51875F034A4247162
:1000F300F582E43400F583741CF0E51875F034A43C
:100103002472F582E43400F5837408F0E51875F081
:1001130034A42473F582E43400F583E4F0E5187520
:10012300F034A42474F582E43400F583E4F0900001
:1001330032E0FCA3E0FDECFFE51875F034A4247570
:10014300F582E43400F583EFF0E51875F034A42468
:1001530076F582E43400F583EDF0900035E0FCA3FE
:10016300E0FDECFFE51875F034A42477F582E43460
:1001730000F583EFF0E51875F034A42478F582E4F4
:100183003400F583EDF0E51875F034A42479F58295
:10019300E43400F5837442F0E4F51990013FE0FF85
:1001A300E51875F034A4247AF582E43400F583E588
:1001B300822519F582E43583F583EFF00519E519F6
:1001C300B407D8E51875F034A42481F582E434002B
:1001D300F583E4F0F51990013FE0FFE51875F0347D
:1001E300A42482F582E43400F583E5822519F5829F
:1001F300E43583F583EFF00519E519B407D8E5185D
:1002030075F034A42489F582E43400F583E4F0A284
:100213000433FFE51875F034A4248AF582E434002E
:10022300F583EFF07839E6FFE51875F034A4248BF5
:10023300F582E43400F583EFF0900069E0FEA3E07B
:10024300FF7C007D05120D96E47BE87A03F9F81232
:100253000CF3E51875F034A4248CF582E43400F52E
:1002630083EFF0E51875F034A4248DF582E43400AF
:10027300F583E4F0E51875F034A4249EF582E434A4
:1002830000F5837423F00207F2E526F470030207F6
:10029300F280F61213988F18E518C39404400302F2
:1002A30003C0EF75F034A4246CF582E43400F583C5
:1002B3007416F0900038E0FFE51875F034A4246D4F
:1002C300F582E43400F583EFF07839E6FFE518753D
:1002D300F034A4246EF582E43400F583EFF0E518DE
:1002E30075F034A4246FF582E43400F583740AF0C6
:1002F300E51875F034A42470F582E43400F58374B2
:10030300E8F0E51875F034A42471F582E43400F5BF
:10031300837408F0E51875F034A42472F582E4348C
:1003230000F583741AF0E51875F034A42473F5828C
:10033300E43400F583E4F0E51875F034A42474F58F
:1003430082E43400F583E4F0A20233FFE51875F08C
:1003530034A42475F582E43400F583EFF0E51875D1
:10036300F034A42476F582E43400F583E4F0E51850
:1003730075F034A42477F582E43400F583E4F0E5E2
:100383001875F034A42478F582E43400F583E4F09E
:100393007F002000027F01E51875F034A42479F56D
:1003A30082E43400F583EFF0E51875F034A4249E5D
:1003B300F582E43400F583740FF00207F2E526F4C6
:1003C30070030207F280F61213988F18E518C3948E
:1003D30004400302051AEF75F034A4246CF582E49B
:1003E3003400F5837416F0900038E0FFE51875F0DB
:1003F30034A4246DF582E43400F583EFF07839E614
:10040300FFE51875F034A4246EF582E43400F58317
:10041300EFF0E51875F034A4246FF582E43400F5A9
:10042300837423F0E51875F034A42470F582E43462
:1004330000F58374E8F0E51875F034A42471F582AF
:10044300E43400F5837421F0E51875F034A42472C4
:10045300F582E43400F583741CF090013BE0F51A57
:10046300A3E0F51BE51AFFE51875F034A42473F532
:1004730082E43400F583EFF0E51875F034A42474B6
:10048300F582E43400F583E51BF0751901E51925C0
:10049300E0FFE51875F034A42473F582E43400F525
:1004A30083E5822FF582E43583F583E4F0E518755F
:1004B300F034A42474F582E43400F583E5822FF547
:1004C30082E43583F583E4F00519E519B408BEE445
:1004D300F519E51925E0FFE51875F034A42483F533
:1004E30082E43400F583E5822FF582E43583F583D6
:1004F300E4F0E51875F034A42484F582E43400F5BF
:1005030083E5822FF582E43583F583E4F00519E56D
:1005130019B408BE020671E526F470030207F280DF
:10052300F61213988F18E518C39404400302068645
:10053300EF75F034A4246CF582E43400F58374166B
:10054300F0900038E0FFE51875F034A4246DF582CF
:10055300E43400F583EFF07839E6FFE51875F034FD
:10056300A4246EF582E43400F583EFF0E51875F00A
:1005730034A4246FF582E43400F5837423F0E51882
:1005830075F034A42470F582E43400F58374E8F044
:10059300E51875F034A42471F582E43400F583740E
:1005A30021F0E51875F034A42472F582E43400F5E3
:1005B30083741DF0900140E0F51AA3E0F51BE51AE2
:1005C300FFE51875F034A42473F582E43400F58351
:1005D300EFF0E51875F034A42474F582E43400F5E3
:1005E30083E51BF0751901E51925E0FFE51875F0A2
:1005F30034A42473F582E43400F583E5822FF58275
:10060300E43583F583E4F0E51875F034A42474F538
:1006130082E43400F583E5822FF582E43583F583A4
:10062300E4F00519E519B408BEE4F519E51925E068
:10063300FFE51875F034A42483F582E43400F583D0
:10064300E5822FF582E43583F583E4F0E51875F050
:1006530034A42484F582E43400F583E5822FF58203
:10066300E43583F583E4F00519E519B408BEE5180C
:1006730075F034A4249EF582E43400F5837428F0E5
:100683000207F2E526F470030207F280F6121496CD
:100693007F007E0412000E90003DE0FF7D017C048C
:1006A30012146490003EE0FF7D027C0412146490F7
:1006B300003FE0FF7D037C04121464900040E0FFE0
:1006C3007404FDFC1214647D007C047F5A121464CC
:1006D30012148490003DE0FEA3E07C002400FFECB4
:1006E3003E900032F0A3EFF090003FE0FEA3E02441
:1006F30000FFEC3E9000350207AB1214967F007E9C
:100703000612000E90003EE0FF90013FF07D017C59
:10071300061214647D007C067F5A1214641214843A
:100723007834E6640360030207F2900140E0FEA31D
:10073300E0FFC374FF9FFF74039EFE90013FE0FD43
:100743007C00D3EF9DEE9C4015900141E02DFE907F
:100753000140E03C900144F0A3CEF00207F2900187
:10076300447403F0A374FFF00207F21214967F009F
:100773007E0812000E90003DE0FF7D017C081214FC
:10078300647D007C087F5A12146412148490003D27
:10079300E0FF7E007C037DE8120D96E47B05FAF909
:1007A300F8120CF3900069EEF0A3EFF080411214FD
:1007B300967F007E0A12000E90003DE0FDFEA3E04E
:1007C3007A002400FFEA3E900146F0A3EFF0AF0564
:1007D3007D017C0A12146490003EE0FF7D027C0AD6
:1007E3001214647D007C0A7F5A121464121484C2AA
:1007F300AF9001487402F0D2AFC201E526F4600362
:10080300020897783BE66003020897900148E0608E
:1008130003020897F518E51875F034A4246BF582E4
:10082300E43400F583E064017061E51875F034A4E5
:10083300246BF582E43400F5837402F0851826E511
:100843001875F034A4249EF582E43400F583E02483
:10085300FFF582E434FFF583E51875F034A4246CC6
:10086300F9740035F0FA7B0178497C017D01AE8390
:10087300AF82120C3CE51875F034A4249EF582E493
:100883003400F583E0783CF60214370518E518C305
:100893009404408222E5257003020B6BAB23AA224A
:1008A300782DEB26F618EA36F6782E06E664046011
:1008B30003020B6B782CE6FE08E67802CEC313CE58
:1008C30013D8F9F5198E18E4782CF608F608F69083
:1008D300013BE518F0A3E519F07834E624FD700335
:1008E30002097F046003020B687832E51926F618C3
:1008F300E51836F6783E06E618700106783EE6649B
:100903002018466003020B687831E6FE08E6780596
:10091300CEC313CE13D8F9FF900140EEF0A3EFF04E
:100923007C007D03120C62A3EEF0A3EFF090014074
:10093300E0FEA3E0FFC374FF9FFF74039EFE9001DC
:100943003FE0F9FDD3EF9DEE94004017E9FF9001DE
:1009530041E02FFE900140E03400900144F0A3CE2B
:10096300F0800A9001447403F0A374FFF0E478313B
:10097300F608F608F678347603020B68E52125E0DD
:10098300F521C3900145E09519900144E095185075
:1009930003020AAC7832E51926F618E51836F6781C
:1009A3003306E664026003020AAF7831E6C313FA42
:1009B30008E613FB2401FFE43AFE900140E0FCA3A8
:1009C300E0FDD39FEC9E4071ED9BFFEC9AC313FABD
:1009D300EF13FBC3ED9BEC9A5003020A9EED9BFFC2
:1009E300EC9AFE900140F0A3EFF07C007D03120C23
:1009F30062A3EEF0A3EFF0900140E0FEA3E0FFC39B
:100A030074FF9FFF74039EFE90013FE0F9FDD3EF57
:100A13009DEE94004017E9FF900141E02FFE900105
:100A230040E03400900144F0A3CEF0806E90014486
:100A33007403F0A374FFF08062900140E0FEA3E032
:100A4300FF2401FDE43EFCD3EB9DEA9C4051781C5E
:100A530006E694064049EF94FFEE9403503DE0040C
:100A6300F07006900140E004F0900140E0FAA3E04A
:100A73007C007D03FFAE02120C62A3EEF0A3EFF045
:100A8300C3900145E094FF900144E09403500CA30C
:100A9300E004F07006900144E004F0E4781CF6E40E
:100AA3007831F608F608F68003432101E521540F57
:100AB300640F70717838E64401F6E4F527F5289061
:100AC3000140E518F0A3E519F0AA18AE02FF7C0077
:100AD3007D03120C62A3EEF0A3EFF0900140E0FE61
:100AE300A3E0FFC374FF9FFF74039EFE90013FE0EA
:100AF300FD7C00D3EF9DEE9C4014900141E02DFE60
:100B0300900140E03C900144F0A3CEF0800A9001B4
:100B1300447403F0A374FFF0E47831F608F608F6A2
:100B2300781CF68017E521540F7011D3E5289458EB
:100B3300E527940240067838E654FEF67838E65402
:100B430001FFFD7C0090017BE07003A3E06D600A70
:100B530090017BECF0A3EDF0B2B3EF552B7004C220
:100B6300028002D202E4F52522E709F608DFFA80C3
:100B730046E709F208DFFA803E88828C83E709F0B2
:100B8300A3DFFA8032E309F608DFFA8078E309F29B
:100B930008DFFA807088828C83E309F0A3DFFA8090
:100BA3006489828A83E0A3F608DFFA805889828AFF
:100BB30083E0A3F208DFFA804C80D280FA80C680FB
:100BC300D4806980F28033801080A680EA809A8086
:100BD300A880DA80E280CA803389828A83ECFAE4CF
:100BE30093A3C8C582C8CCC583CCF0A3C8C582C8AB
:100BF300CCC583CCDFE9DEE7800D89828A83E49369
:100C0300A3F608DFF9ECFAA9F0EDFB2289828A83C7
:100C1300ECFAE0A3C8C582C8CCC583CCF0A3C8C591
:100C230082C8CCC583CCDFEADEE880DB89828A8395
:100C3300E493A3F208DFF980CC88F0EF60010E4E55
:100C430060C388F0ED2402B4040050B9F582EB24AC
:100C530002B4040050AF2323458223900BBC73BC22
:100C6300000BBE0029EF8DF084FFADF022E4CCF839
:100C730075F008EF2FFFEE33FEEC33FCEE9DEC989E
:100C83004005FCEE9DFE0FD5F0E9E4CEFD22EDF824
:100C9300F5F0EE8420D21CFEADF075F008EF2FFFC7
:100CA300ED33FD4007985006D5F0F222C398FD0FAF
:100CB300D5F0EA2275F008758200EF2FFFEE33FEC0
:100CC300CD33CDCC33CCC58233C5829BED9AEC9921
:100CD300E58298400CF582EE9BFEED9AFDEC99FCC3
:100CE3000FD5F0D6E4CEFBE4CDFAE4CCF9A882220A
:100CF300B800C1B90059BA002DEC8BF084CFCECD2A
:100D0300FCE5F0CBF97818EF2FFFEE33FEED33FD62
:100D1300EC33FCEB33FB10D703994004EB99FB0F47
:100D2300D8E5E4F9FA227818EF2FFFEE33FEED331E
:100D3300FDEC33FCC933C910D7059BE99A4007EC96
:100D43009BFCE99AF90FD8E0E4C9FAE4CCFB2275DD
:100D5300F010EF2FFFEE33FEED33FDCC33CCC83371
:100D6300C810D7079BEC9AE899400AED9BFDEC9AD3
:100D7300FCE899F80FD5F0DAE4CDFBE4CCFAE4C84B
:100D8300F922EB9FF5F0EA9E42F0E99D42F0E89CE0
:100D930045F022EC8EF0A4CCC5F0CCCDF8EFA4CE78
:100DA300C5F02DFDE43CFCE8A42EC8C5F03DFDE4F0
:100DB3003CFCEFA4FFE5F028FEE43DFDE43CFC220F
:100DC300C0E0C0F0C083C082C0D075D010109902BB
:100DD3008055782F06783CE6FF782FE6FEC39F50B8
:100DE30027EF14B516077835E6F599803874492E40
:100DF300F582E43401F583E0FFF599EED3940040E6
:100E0300247835EF26F6801DE526C394045011E5BA
:100E13002675F034A4246BF582E43400F583E4F002
:100E23007526FFC205C299109803020F2CAF99785B
:100E33003BE614603214604D146068147003020EB4
:100E4300CE147003020F0224056003020F26EF6421
:100E5300166003020F2A7830F67836F6783A76046D
:100E6300783B7601020F2A7830E6062400F582E407
:100E73003400F583EFF0783626F6783A7604783B3B
:100E83007602020F2A7830E6062400F582E4340065
:100E9300F583EFF0783626F6783A7604783B7603D6
:100EA300020F2AEFD39400407AEF942F50757830D5
:100EB300E6062400F582E43400F583EFF078362665
:100EC300F6783A7604783B7604805C7830E6FE2444
:100ED30000F582E43400F583EFF0783626F69000CF
:100EE30002E02402FDE433FCEEB5150AE4B5140672
:100EF300783B76058003783006783A760480287844
:100F030036E6B5171E20011B900002E02403FFE420
:100F130033FE78377C007D017B017A007900120C67
:100F23003CD201783B7600C298D0D0D082D083D017
:100F3300F0D0E0321214967F007E0412144E8F1804
:100F4300E518645A70757F017E0412144E8F18EFF2
:100F5300900032F0A3E4F07F027E0412144E8F1847
:100F6300900033E02FF0900032E03400F07F037EF6
:100F73000412144E8F18EF900035F0A3E4F07404BC
:100F8300FFFE12144E8F18900036E02FF0900035BC
:100F9300E03400F0900032E0FEA3E0FFC3EE9400E3
:100FA3004019900035E0FCA3E0FDD394E7EC9403F3
:100FB3005009C3EF9DEE9C40138000E4900032F093
:100FC300A3F09000357403F0A374E7F07F007E066E
:100FD30012144E8F18E518B45A197F017E061214A5
:100FE3004E90013FEFF0C394054008E0D394FF40D7
:100FF30008800090013F7432F07F007E0812144E87
:101003008F18E518B45A257F017E0812144E8F18E5
:101013007E007C037DE8120D96E47B05FAF9F81255
:101023000CF3900069EEF0A3EFF08007E490006901
:10103300F0A3F07F007E0A12144E8F18E518645A4D
:1010430070297F017E0A12144E8F18EF900146F02B
:10105300A3E4F07F027E0A12144E8F18900147E03A
:101063002FF0900146E03400F08007E4900146F051
:10107300A3F0021484C0E0C083C082C0D075D0083E
:10108300758A00758CDCD28C53BCEFE525704DAFAF
:10109300BDF5228F23E523AE227802C333CE33CEB0
:1010A300D8F9F5238E22E5BE54032523F523E43531
:1010B30022F522752501900146E0FEA3E0FFC395CA
:1010C30023EE9522500DC3E5239FF523E5229EF5DC
:1010D30022800675220075230043BC08900034E08B
:1010E30004F090013EE004F0700690013DE004F04E
:1010F300900148E0D394004003E014F00528E5286C
:1011030070020527300308052AE52A7002052978AD
:101113003BE66011783AE6D39400400116783AE64C
:101123007003783BF6D0D0D082D083D0E032759173
:1011330001E4F592F5B1F5B2D2B2D2B3D2B475B33C
:1011430040F5B475BB70C2B2C2B320B104F52B80B5
:1011530003752B0178397637D204751BF0751A495C
:10116300751902751800E4FFFEFDFCAB1BAA1AA952
:1011730019A818D3120D85401AE51B24FFF51BE5AA
:101183001A34FFF51AE51934FFF519E51834FFF59C
:101193001880D3D2B2D2B3751BF0751A49751902F0
:1011A300751800E4FFFEFDFCAB1BAA1AA919A818C9
:1011B300D3120D85401AE51B24FFF51BE51A34FFF6
:1011C300F51AE51934FFF519E51834FFF51880D33E
:1011D30022787FE4F6D8FD75813E02121B021403C8
:1011E300E493A3F8E493A34003F68001F208DFF449
:1011F3008029E493A3F85407240CC8C333C4540FC1
:101203004420C8834004F456800146F6DFE4800B93
:10121300010204081020408090148CE47E01936046
:10122300BCA3FF543F30E509541FFEE493A36001C0
:101233000ECF54C025E060A840B8E493A3FAE4932A
:10124300A3F8E493A3C8C582C8CAC583CAF0A3C8D8
:10125300C582C8CAC583CADFE9DEE780BE90017DC7
:10126300E014601114602B240270507834E6D39498
:10127300024048803C900034E0D394C8403DE4F001
:1012830030000520C635800330C63090017D7402DE
:10129300F022900034E0D39414402030000920C69B
:1012A30006C200C2B2800A20000730C604D200D2B0
:1012B300B2E4900034F090017D04F022E4F5257847
:1012C3003DF608F6782CF608F608F67831F608F6B7
:1012D30008F690013BF0A3F0900140F0A3F0A3F0D7
:1012E300A3F0A3F0A3F0F521781CF6F527F52878F1
:1012F30037F608F690017BF0A3F0C20202147830AF
:1013030000033002167834E6B40310C2AFE4F529C3
:10131300F52AD2AF200304C2B4D203300313C2AF01
:10132300D2AFD3E52A9458E52994024004C203D2EC
:10133300B422C201E4783BF6783AF67830F6783690
:10134300F6783CF6782FF6C205FFEF75F034A42447
:101353006BF582E43400F583E4F00FBF04EC7526EB
:10136300FF0213E57834E6146013047027C2AFE478
:1013730090013DF0A3F0D2AF7834760122C2AF9052
:10138300013DE0FEA3E0D2AFD394E8EE9403400422
:101393007834760222E4FFC2AFEF75F034A4246BF5
:1013A300F582E43400F583E0D2AF7013EF75F034C7
:1013B300A4246BF582E43400F5837401F080040FF8
:1013C300BF04D422538E7F5389F0438901E4F58A05
:1013D300758CDCC28DD2A943B702C2B9D28C43BC8F
:1013E300082275985053873F538EFB759CFA438EA2
:1013F30001438E10D2ACD2BC53B7EF0000000022E1
:1014030012141FD2AF75C136121367120898120057
:101413002612126012130275C13680EC12113112BA
:101423000F371214911212BF121335120003121444
:101433009A0213C7D205E47835F6782FF6E62449E5
:10144300F582E43401F583E0F59922AD07AC067526
:10145300C5018CC38DC475C65A75C6A50000AFC23D
:1014630022AB0775C5028CC38DC48BC275C65A7572
:10147300C6A5000022439D0175BC80C2AD53A2FBEB
:1014830022E4F5C5F5C7F5C6224101480000E4781A
:0A14930034F62275C78022C203223E
:00000001FF
